{
  "_format": "hh-sol-artifact-1",
  "contractName": "TokenERC20",
  "sourceName": "contracts/TokenERC20.sol",
  "abi": [
    {
      "inputs": [],
      "stateMutability": "nonpayable",
      "type": "constructor"
    },
    {
      "anonymous": false,
      "inputs": [
        {
          "indexed": true,
          "internalType": "address",
          "name": "owner",
          "type": "address"
        },
        {
          "indexed": true,
          "internalType": "address",
          "name": "spender",
          "type": "address"
        },
        {
          "indexed": false,
          "internalType": "uint256",
          "name": "value",
          "type": "uint256"
        }
      ],
      "name": "Approval",
      "type": "event"
    },
    {
      "anonymous": false,
      "inputs": [
        {
          "indexed": true,
          "internalType": "address",
          "name": "previousOwner",
          "type": "address"
        },
        {
          "indexed": true,
          "internalType": "address",
          "name": "newOwner",
          "type": "address"
        }
      ],
      "name": "OwnershipTransferred",
      "type": "event"
    },
    {
      "anonymous": false,
      "inputs": [
        {
          "indexed": true,
          "internalType": "address",
          "name": "from",
          "type": "address"
        },
        {
          "indexed": true,
          "internalType": "address",
          "name": "to",
          "type": "address"
        },
        {
          "indexed": false,
          "internalType": "uint256",
          "name": "value",
          "type": "uint256"
        }
      ],
      "name": "Transfer",
      "type": "event"
    },
    {
      "inputs": [],
      "name": "DOMAIN_SEPARATOR",
      "outputs": [
        {
          "internalType": "bytes32",
          "name": "",
          "type": "bytes32"
        }
      ],
      "stateMutability": "view",
      "type": "function"
    },
    {
      "inputs": [
        {
          "internalType": "address",
          "name": "owner",
          "type": "address"
        },
        {
          "internalType": "address",
          "name": "spender",
          "type": "address"
        }
      ],
      "name": "allowance",
      "outputs": [
        {
          "internalType": "uint256",
          "name": "",
          "type": "uint256"
        }
      ],
      "stateMutability": "view",
      "type": "function"
    },
    {
      "inputs": [
        {
          "internalType": "address",
          "name": "spender",
          "type": "address"
        },
        {
          "internalType": "uint256",
          "name": "amount",
          "type": "uint256"
        }
      ],
      "name": "approve",
      "outputs": [
        {
          "internalType": "bool",
          "name": "",
          "type": "bool"
        }
      ],
      "stateMutability": "nonpayable",
      "type": "function"
    },
    {
      "inputs": [
        {
          "internalType": "address",
          "name": "account",
          "type": "address"
        }
      ],
      "name": "balanceOf",
      "outputs": [
        {
          "internalType": "uint256",
          "name": "",
          "type": "uint256"
        }
      ],
      "stateMutability": "view",
      "type": "function"
    },
    {
      "inputs": [],
      "name": "decimals",
      "outputs": [
        {
          "internalType": "uint8",
          "name": "",
          "type": "uint8"
        }
      ],
      "stateMutability": "view",
      "type": "function"
    },
    {
      "inputs": [
        {
          "internalType": "address",
          "name": "spender",
          "type": "address"
        },
        {
          "internalType": "uint256",
          "name": "subtractedValue",
          "type": "uint256"
        }
      ],
      "name": "decreaseAllowance",
      "outputs": [
        {
          "internalType": "bool",
          "name": "",
          "type": "bool"
        }
      ],
      "stateMutability": "nonpayable",
      "type": "function"
    },
    {
      "inputs": [
        {
          "internalType": "address",
          "name": "spender",
          "type": "address"
        },
        {
          "internalType": "uint256",
          "name": "addedValue",
          "type": "uint256"
        }
      ],
      "name": "increaseAllowance",
      "outputs": [
        {
          "internalType": "bool",
          "name": "",
          "type": "bool"
        }
      ],
      "stateMutability": "nonpayable",
      "type": "function"
    },
    {
      "inputs": [
        {
          "internalType": "address",
          "name": "to",
          "type": "address"
        },
        {
          "internalType": "uint256",
          "name": "amount",
          "type": "uint256"
        }
      ],
      "name": "mint",
      "outputs": [],
      "stateMutability": "nonpayable",
      "type": "function"
    },
    {
      "inputs": [],
      "name": "name",
      "outputs": [
        {
          "internalType": "string",
          "name": "",
          "type": "string"
        }
      ],
      "stateMutability": "view",
      "type": "function"
    },
    {
      "inputs": [
        {
          "internalType": "address",
          "name": "owner",
          "type": "address"
        }
      ],
      "name": "nonces",
      "outputs": [
        {
          "internalType": "uint256",
          "name": "",
          "type": "uint256"
        }
      ],
      "stateMutability": "view",
      "type": "function"
    },
    {
      "inputs": [],
      "name": "owner",
      "outputs": [
        {
          "internalType": "address",
          "name": "",
          "type": "address"
        }
      ],
      "stateMutability": "view",
      "type": "function"
    },
    {
      "inputs": [
        {
          "internalType": "address",
          "name": "owner",
          "type": "address"
        },
        {
          "internalType": "address",
          "name": "spender",
          "type": "address"
        },
        {
          "internalType": "uint256",
          "name": "value",
          "type": "uint256"
        },
        {
          "internalType": "uint256",
          "name": "deadline",
          "type": "uint256"
        },
        {
          "internalType": "uint8",
          "name": "v",
          "type": "uint8"
        },
        {
          "internalType": "bytes32",
          "name": "r",
          "type": "bytes32"
        },
        {
          "internalType": "bytes32",
          "name": "s",
          "type": "bytes32"
        }
      ],
      "name": "permit",
      "outputs": [],
      "stateMutability": "nonpayable",
      "type": "function"
    },
    {
      "inputs": [],
      "name": "renounceOwnership",
      "outputs": [],
      "stateMutability": "nonpayable",
      "type": "function"
    },
    {
      "inputs": [],
      "name": "symbol",
      "outputs": [
        {
          "internalType": "string",
          "name": "",
          "type": "string"
        }
      ],
      "stateMutability": "view",
      "type": "function"
    },
    {
      "inputs": [],
      "name": "totalSupply",
      "outputs": [
        {
          "internalType": "uint256",
          "name": "",
          "type": "uint256"
        }
      ],
      "stateMutability": "view",
      "type": "function"
    },
    {
      "inputs": [
        {
          "internalType": "address",
          "name": "to",
          "type": "address"
        },
        {
          "internalType": "uint256",
          "name": "amount",
          "type": "uint256"
        }
      ],
      "name": "transfer",
      "outputs": [
        {
          "internalType": "bool",
          "name": "",
          "type": "bool"
        }
      ],
      "stateMutability": "nonpayable",
      "type": "function"
    },
    {
      "inputs": [
        {
          "internalType": "address",
          "name": "from",
          "type": "address"
        },
        {
          "internalType": "address",
          "name": "to",
          "type": "address"
        },
        {
          "internalType": "uint256",
          "name": "amount",
          "type": "uint256"
        }
      ],
      "name": "transferFrom",
      "outputs": [
        {
          "internalType": "bool",
          "name": "",
          "type": "bool"
        }
      ],
      "stateMutability": "nonpayable",
      "type": "function"
    },
    {
      "inputs": [
        {
          "internalType": "address",
          "name": "newOwner",
          "type": "address"
        }
      ],
      "name": "transferOwnership",
      "outputs": [],
      "stateMutability": "nonpayable",
      "type": "function"
    }
  ],
  "bytecode": "0x6101406040523480156200001257600080fd5b506040518060400160405280600581526020017f4552433230000000000000000000000000000000000000000000000000000000815250806040518060400160405280600181526020017f31000000000000000000000000000000000000000000000000000000000000008152506040518060400160405280600581526020017f45524332300000000000000000000000000000000000000000000000000000008152506040518060400160405280600381526020017f455243000000000000000000000000000000000000000000000000000000000081525081600390805190602001906200010492919062000303565b5080600490805190602001906200011d92919062000303565b5050506200014062000134620001f960201b60201c565b6200020160201b60201c565b60008280519060200120905060008280519060200120905060007f8b73c3c69bb8fe3d512ecc4cf759cc79239f7b179b0ffacaa9a75d522b39400f90508260e081815250508161010081815250504660a08181525050620001a9818484620002c760201b60201c565b608081815250503073ffffffffffffffffffffffffffffffffffffffff1660c08173ffffffffffffffffffffffffffffffffffffffff1681525050806101208181525050505050505050620004f0565b600033905090565b6000600560009054906101000a900473ffffffffffffffffffffffffffffffffffffffff16905081600560006101000a81548173ffffffffffffffffffffffffffffffffffffffff021916908373ffffffffffffffffffffffffffffffffffffffff1602179055508173ffffffffffffffffffffffffffffffffffffffff168173ffffffffffffffffffffffffffffffffffffffff167f8be0079c531659141344cd1fd0a4f28419497f9722a3daafe3b4186f6b6457e060405160405180910390a35050565b60008383834630604051602001620002e49594939291906200042e565b6040516020818303038152906040528051906020012090509392505050565b8280546200031190620004ba565b90600052602060002090601f01602090048101928262000335576000855562000381565b82601f106200035057805160ff191683800117855562000381565b8280016001018555821562000381579182015b828111156200038057825182559160200191906001019062000363565b5b50905062000390919062000394565b5090565b5b80821115620003af57600081600090555060010162000395565b5090565b6000819050919050565b620003c881620003b3565b82525050565b6000819050919050565b620003e381620003ce565b82525050565b600073ffffffffffffffffffffffffffffffffffffffff82169050919050565b60006200041682620003e9565b9050919050565b620004288162000409565b82525050565b600060a082019050620004456000830188620003bd565b620004546020830187620003bd565b620004636040830186620003bd565b620004726060830185620003d8565b6200048160808301846200041d565b9695505050505050565b7f4e487b7100000000000000000000000000000000000000000000000000000000600052602260045260246000fd5b60006002820490506001821680620004d357607f821691505b60208210811415620004ea57620004e96200048b565b5b50919050565b60805160a05160c05160e0516101005161012051612424620005406000396000610ed401526000610f1601526000610ef501526000610e2a01526000610e8001526000610ea901526124246000f3fe608060405234801561001057600080fd5b50600436106101165760003560e01c8063715018a6116100a2578063a457c2d711610071578063a457c2d7146102e5578063a9059cbb14610315578063d505accf14610345578063dd62ed3e14610361578063f2fde38b1461039157610116565b8063715018a61461026f5780637ecebe00146102795780638da5cb5b146102a957806395d89b41146102c757610116565b8063313ce567116100e9578063313ce567146101b75780633644e515146101d557806339509351146101f357806340c10f191461022357806370a082311461023f57610116565b806306fdde031461011b578063095ea7b31461013957806318160ddd1461016957806323b872dd14610187575b600080fd5b6101236103ad565b6040516101309190611603565b60405180910390f35b610153600480360381019061014e91906116be565b61043f565b6040516101609190611719565b60405180910390f35b610171610462565b60405161017e9190611743565b60405180910390f35b6101a1600480360381019061019c919061175e565b61046c565b6040516101ae9190611719565b60405180910390f35b6101bf61049b565b6040516101cc91906117cd565b60405180910390f35b6101dd6104a4565b6040516101ea9190611801565b60405180910390f35b61020d600480360381019061020891906116be565b6104b3565b60405161021a9190611719565b60405180910390f35b61023d600480360381019061023891906116be565b6104ea565b005b6102596004803603810190610254919061181c565b610500565b6040516102669190611743565b60405180910390f35b610277610548565b005b610293600480360381019061028e919061181c565b61055c565b6040516102a09190611743565b60405180910390f35b6102b16105ac565b6040516102be9190611858565b60405180910390f35b6102cf6105d6565b6040516102dc9190611603565b60405180910390f35b6102ff60048036038101906102fa91906116be565b610668565b60405161030c9190611719565b60405180910390f35b61032f600480360381019061032a91906116be565b6106df565b60405161033c9190611719565b60405180910390f35b61035f600480360381019061035a91906118cb565b610702565b005b61037b6004803603810190610376919061196d565b610844565b6040516103889190611743565b60405180910390f35b6103ab60048036038101906103a6919061181c565b6108cb565b005b6060600380546103bc906119dc565b80601f01602080910402602001604051908101604052809291908181526020018280546103e8906119dc565b80156104355780601f1061040a57610100808354040283529160200191610435565b820191906000526020600020905b81548152906001019060200180831161041857829003601f168201915b5050505050905090565b60008061044a61094f565b9050610457818585610957565b600191505092915050565b6000600254905090565b60008061047761094f565b9050610484858285610b22565b61048f858585610bae565b60019150509392505050565b60006012905090565b60006104ae610e26565b905090565b6000806104be61094f565b90506104df8185856104d08589610844565b6104da9190611a3d565b610957565b600191505092915050565b6104f2610f40565b6104fc8282610fbe565b5050565b60008060008373ffffffffffffffffffffffffffffffffffffffff1673ffffffffffffffffffffffffffffffffffffffff168152602001908152602001600020549050919050565b610550610f40565b61055a6000611115565b565b60006105a5600660008473ffffffffffffffffffffffffffffffffffffffff1673ffffffffffffffffffffffffffffffffffffffff1681526020019081526020016000206111db565b9050919050565b6000600560009054906101000a900473ffffffffffffffffffffffffffffffffffffffff16905090565b6060600480546105e5906119dc565b80601f0160208091040260200160405190810160405280929190818152602001828054610611906119dc565b801561065e5780601f106106335761010080835404028352916020019161065e565b820191906000526020600020905b81548152906001019060200180831161064157829003601f168201915b5050505050905090565b60008061067361094f565b905060006106818286610844565b9050838110156106c6576040517f08c379a00000000000000000000000000000000000000000000000000000000081526004016106bd90611b05565b60405180910390fd5b6106d38286868403610957565b60019250505092915050565b6000806106ea61094f565b90506106f7818585610bae565b600191505092915050565b83421115610745576040517f08c379a000000000000000000000000000000000000000000000000000000000815260040161073c90611b71565b60405180910390fd5b60007f6e71edae12b1b97f4d1f60370fef10105fa2faae0126114a169c64845d6126c98888886107748c6111e9565b8960405160200161078a96959493929190611b91565b60405160208183030381529060405280519060200120905060006107ad82611247565b905060006107bd82878787611261565b90508973ffffffffffffffffffffffffffffffffffffffff168173ffffffffffffffffffffffffffffffffffffffff161461082d576040517f08c379a000000000000000000000000000000000000000000000000000000000815260040161082490611c3e565b60405180910390fd5b6108388a8a8a610957565b50505050505050505050565b6000600160008473ffffffffffffffffffffffffffffffffffffffff1673ffffffffffffffffffffffffffffffffffffffff16815260200190815260200160002060008373ffffffffffffffffffffffffffffffffffffffff1673ffffffffffffffffffffffffffffffffffffffff16815260200190815260200160002054905092915050565b6108d3610f40565b600073ffffffffffffffffffffffffffffffffffffffff168173ffffffffffffffffffffffffffffffffffffffff161415610943576040517f08c379a000000000000000000000000000000000000000000000000000000000815260040161093a90611cd0565b60405180910390fd5b61094c81611115565b50565b600033905090565b600073ffffffffffffffffffffffffffffffffffffffff168373ffffffffffffffffffffffffffffffffffffffff1614156109c7576040517f08c379a00000000000000000000000000000000000000000000000000000000081526004016109be90611d62565b60405180910390fd5b600073ffffffffffffffffffffffffffffffffffffffff168273ffffffffffffffffffffffffffffffffffffffff161415610a37576040517f08c379a0000000000000000000000000000000000000000000000000000000008152600401610a2e90611df4565b60405180910390fd5b80600160008573ffffffffffffffffffffffffffffffffffffffff1673ffffffffffffffffffffffffffffffffffffffff16815260200190815260200160002060008473ffffffffffffffffffffffffffffffffffffffff1673ffffffffffffffffffffffffffffffffffffffff168152602001908152602001600020819055508173ffffffffffffffffffffffffffffffffffffffff168373ffffffffffffffffffffffffffffffffffffffff167f8c5be1e5ebec7d5bd14f71427d1e84f3dd0314c0f7b2291e5b200ac8c7c3b92583604051610b159190611743565b60405180910390a3505050565b6000610b2e8484610844565b90507fffffffffffffffffffffffffffffffffffffffffffffffffffffffffffffffff8114610ba85781811015610b9a576040517f08c379a0000000000000000000000000000000000000000000000000000000008152600401610b9190611e60565b60405180910390fd5b610ba78484848403610957565b5b50505050565b600073ffffffffffffffffffffffffffffffffffffffff168373ffffffffffffffffffffffffffffffffffffffff161415610c1e576040517f08c379a0000000000000000000000000000000000000000000000000000000008152600401610c1590611ef2565b60405180910390fd5b600073ffffffffffffffffffffffffffffffffffffffff168273ffffffffffffffffffffffffffffffffffffffff161415610c8e576040517f08c379a0000000000000000000000000000000000000000000000000000000008152600401610c8590611f84565b60405180910390fd5b610c9983838361128c565b60008060008573ffffffffffffffffffffffffffffffffffffffff1673ffffffffffffffffffffffffffffffffffffffff16815260200190815260200160002054905081811015610d1f576040517f08c379a0000000000000000000000000000000000000000000000000000000008152600401610d1690612016565b60405180910390fd5b8181036000808673ffffffffffffffffffffffffffffffffffffffff1673ffffffffffffffffffffffffffffffffffffffff16815260200190815260200160002081905550816000808573ffffffffffffffffffffffffffffffffffffffff1673ffffffffffffffffffffffffffffffffffffffff168152602001908152602001600020600082825401925050819055508273ffffffffffffffffffffffffffffffffffffffff168473ffffffffffffffffffffffffffffffffffffffff167fddf252ad1be2c89b69c2b068fc378daa952ba7f163c4a11628f55a4df523b3ef84604051610e0d9190611743565b60405180910390a3610e20848484611291565b50505050565b60007f000000000000000000000000000000000000000000000000000000000000000073ffffffffffffffffffffffffffffffffffffffff163073ffffffffffffffffffffffffffffffffffffffff16148015610ea257507f000000000000000000000000000000000000000000000000000000000000000046145b15610ecf577f00000000000000000000000000000000000000000000000000000000000000009050610f3d565b610f3a7f00000000000000000000000000000000000000000000000000000000000000007f00000000000000000000000000000000000000000000000000000000000000007f0000000000000000000000000000000000000000000000000000000000000000611296565b90505b90565b610f4861094f565b73ffffffffffffffffffffffffffffffffffffffff16610f666105ac565b73ffffffffffffffffffffffffffffffffffffffff1614610fbc576040517f08c379a0000000000000000000000000000000000000000000000000000000008152600401610fb390612082565b60405180910390fd5b565b600073ffffffffffffffffffffffffffffffffffffffff168273ffffffffffffffffffffffffffffffffffffffff16141561102e576040517f08c379a0000000000000000000000000000000000000000000000000000000008152600401611025906120ee565b60405180910390fd5b61103a6000838361128c565b806002600082825461104c9190611a3d565b92505081905550806000808473ffffffffffffffffffffffffffffffffffffffff1673ffffffffffffffffffffffffffffffffffffffff168152602001908152602001600020600082825401925050819055508173ffffffffffffffffffffffffffffffffffffffff16600073ffffffffffffffffffffffffffffffffffffffff167fddf252ad1be2c89b69c2b068fc378daa952ba7f163c4a11628f55a4df523b3ef836040516110fd9190611743565b60405180910390a361111160008383611291565b5050565b6000600560009054906101000a900473ffffffffffffffffffffffffffffffffffffffff16905081600560006101000a81548173ffffffffffffffffffffffffffffffffffffffff021916908373ffffffffffffffffffffffffffffffffffffffff1602179055508173ffffffffffffffffffffffffffffffffffffffff168173ffffffffffffffffffffffffffffffffffffffff167f8be0079c531659141344cd1fd0a4f28419497f9722a3daafe3b4186f6b6457e060405160405180910390a35050565b600081600001549050919050565b600080600660008473ffffffffffffffffffffffffffffffffffffffff1673ffffffffffffffffffffffffffffffffffffffff1681526020019081526020016000209050611236816111db565b9150611241816112d0565b50919050565b600061125a611254610e26565b836112e6565b9050919050565b600080600061127287878787611319565b9150915061127f816113fc565b8192505050949350505050565b505050565b505050565b600083838346306040516020016112b195949392919061210e565b6040516020818303038152906040528051906020012090509392505050565b6001816000016000828254019250508190555050565b600082826040516020016112fb9291906121d9565b60405160208183030381529060405280519060200120905092915050565b6000807f7fffffffffffffffffffffffffffffff5d576e7357a4501ddfe92f46681b20a08360001c11156113545760006003915091506113f3565b6000600187878787604051600081526020016040526040516113799493929190612210565b6020604051602081039080840390855afa15801561139b573d6000803e3d6000fd5b505050602060405103519050600073ffffffffffffffffffffffffffffffffffffffff168173ffffffffffffffffffffffffffffffffffffffff1614156113ea576000600192509250506113f3565b80600092509250505b94509492505050565b600060048111156114105761140f612255565b5b81600481111561142357611422612255565b5b141561142e57611567565b6001600481111561144257611441612255565b5b81600481111561145557611454612255565b5b1415611496576040517f08c379a000000000000000000000000000000000000000000000000000000000815260040161148d906122d0565b60405180910390fd5b600260048111156114aa576114a9612255565b5b8160048111156114bd576114bc612255565b5b14156114fe576040517f08c379a00000000000000000000000000000000000000000000000000000000081526004016114f59061233c565b60405180910390fd5b6003600481111561151257611511612255565b5b81600481111561152557611524612255565b5b1415611566576040517f08c379a000000000000000000000000000000000000000000000000000000000815260040161155d906123ce565b60405180910390fd5b5b50565b600081519050919050565b600082825260208201905092915050565b60005b838110156115a4578082015181840152602081019050611589565b838111156115b3576000848401525b50505050565b6000601f19601f8301169050919050565b60006115d58261156a565b6115df8185611575565b93506115ef818560208601611586565b6115f8816115b9565b840191505092915050565b6000602082019050818103600083015261161d81846115ca565b905092915050565b600080fd5b600073ffffffffffffffffffffffffffffffffffffffff82169050919050565b60006116558261162a565b9050919050565b6116658161164a565b811461167057600080fd5b50565b6000813590506116828161165c565b92915050565b6000819050919050565b61169b81611688565b81146116a657600080fd5b50565b6000813590506116b881611692565b92915050565b600080604083850312156116d5576116d4611625565b5b60006116e385828601611673565b92505060206116f4858286016116a9565b9150509250929050565b60008115159050919050565b611713816116fe565b82525050565b600060208201905061172e600083018461170a565b92915050565b61173d81611688565b82525050565b60006020820190506117586000830184611734565b92915050565b60008060006060848603121561177757611776611625565b5b600061178586828701611673565b935050602061179686828701611673565b92505060406117a7868287016116a9565b9150509250925092565b600060ff82169050919050565b6117c7816117b1565b82525050565b60006020820190506117e260008301846117be565b92915050565b6000819050919050565b6117fb816117e8565b82525050565b600060208201905061181660008301846117f2565b92915050565b60006020828403121561183257611831611625565b5b600061184084828501611673565b91505092915050565b6118528161164a565b82525050565b600060208201905061186d6000830184611849565b92915050565b61187c816117b1565b811461188757600080fd5b50565b60008135905061189981611873565b92915050565b6118a8816117e8565b81146118b357600080fd5b50565b6000813590506118c58161189f565b92915050565b600080600080600080600060e0888a0312156118ea576118e9611625565b5b60006118f88a828b01611673565b97505060206119098a828b01611673565b965050604061191a8a828b016116a9565b955050606061192b8a828b016116a9565b945050608061193c8a828b0161188a565b93505060a061194d8a828b016118b6565b92505060c061195e8a828b016118b6565b91505092959891949750929550565b6000806040838503121561198457611983611625565b5b600061199285828601611673565b92505060206119a385828601611673565b9150509250929050565b7f4e487b7100000000000000000000000000000000000000000000000000000000600052602260045260246000fd5b600060028204905060018216806119f457607f821691505b60208210811415611a0857611a076119ad565b5b50919050565b7f4e487b7100000000000000000000000000000000000000000000000000000000600052601160045260246000fd5b6000611a4882611688565b9150611a5383611688565b9250827fffffffffffffffffffffffffffffffffffffffffffffffffffffffffffffffff03821115611a8857611a87611a0e565b5b828201905092915050565b7f45524332303a2064656372656173656420616c6c6f77616e63652062656c6f7760008201527f207a65726f000000000000000000000000000000000000000000000000000000602082015250565b6000611aef602583611575565b9150611afa82611a93565b604082019050919050565b60006020820190508181036000830152611b1e81611ae2565b9050919050565b7f45524332305065726d69743a206578706972656420646561646c696e65000000600082015250565b6000611b5b601d83611575565b9150611b6682611b25565b602082019050919050565b60006020820190508181036000830152611b8a81611b4e565b9050919050565b600060c082019050611ba660008301896117f2565b611bb36020830188611849565b611bc06040830187611849565b611bcd6060830186611734565b611bda6080830185611734565b611be760a0830184611734565b979650505050505050565b7f45524332305065726d69743a20696e76616c6964207369676e61747572650000600082015250565b6000611c28601e83611575565b9150611c3382611bf2565b602082019050919050565b60006020820190508181036000830152611c5781611c1b565b9050919050565b7f4f776e61626c653a206e6577206f776e657220697320746865207a65726f206160008201527f6464726573730000000000000000000000000000000000000000000000000000602082015250565b6000611cba602683611575565b9150611cc582611c5e565b604082019050919050565b60006020820190508181036000830152611ce981611cad565b9050919050565b7f45524332303a20617070726f76652066726f6d20746865207a65726f2061646460008201527f7265737300000000000000000000000000000000000000000000000000000000602082015250565b6000611d4c602483611575565b9150611d5782611cf0565b604082019050919050565b60006020820190508181036000830152611d7b81611d3f565b9050919050565b7f45524332303a20617070726f766520746f20746865207a65726f20616464726560008201527f7373000000000000000000000000000000000000000000000000000000000000602082015250565b6000611dde602283611575565b9150611de982611d82565b604082019050919050565b60006020820190508181036000830152611e0d81611dd1565b9050919050565b7f45524332303a20696e73756666696369656e7420616c6c6f77616e6365000000600082015250565b6000611e4a601d83611575565b9150611e5582611e14565b602082019050919050565b60006020820190508181036000830152611e7981611e3d565b9050919050565b7f45524332303a207472616e736665722066726f6d20746865207a65726f20616460008201527f6472657373000000000000000000000000000000000000000000000000000000602082015250565b6000611edc602583611575565b9150611ee782611e80565b604082019050919050565b60006020820190508181036000830152611f0b81611ecf565b9050919050565b7f45524332303a207472616e7366657220746f20746865207a65726f206164647260008201527f6573730000000000000000000000000000000000000000000000000000000000602082015250565b6000611f6e602383611575565b9150611f7982611f12565b604082019050919050565b60006020820190508181036000830152611f9d81611f61565b9050919050565b7f45524332303a207472616e7366657220616d6f756e742065786365656473206260008201527f616c616e63650000000000000000000000000000000000000000000000000000602082015250565b6000612000602683611575565b915061200b82611fa4565b604082019050919050565b6000602082019050818103600083015261202f81611ff3565b9050919050565b7f4f776e61626c653a2063616c6c6572206973206e6f7420746865206f776e6572600082015250565b600061206c602083611575565b915061207782612036565b602082019050919050565b6000602082019050818103600083015261209b8161205f565b9050919050565b7f45524332303a206d696e7420746f20746865207a65726f206164647265737300600082015250565b60006120d8601f83611575565b91506120e3826120a2565b602082019050919050565b60006020820190508181036000830152612107816120cb565b9050919050565b600060a08201905061212360008301886117f2565b61213060208301876117f2565b61213d60408301866117f2565b61214a6060830185611734565b6121576080830184611849565b9695505050505050565b600081905092915050565b7f1901000000000000000000000000000000000000000000000000000000000000600082015250565b60006121a2600283612161565b91506121ad8261216c565b600282019050919050565b6000819050919050565b6121d36121ce826117e8565b6121b8565b82525050565b60006121e482612195565b91506121f082856121c2565b60208201915061220082846121c2565b6020820191508190509392505050565b600060808201905061222560008301876117f2565b61223260208301866117be565b61223f60408301856117f2565b61224c60608301846117f2565b95945050505050565b7f4e487b7100000000000000000000000000000000000000000000000000000000600052602160045260246000fd5b7f45434453413a20696e76616c6964207369676e61747572650000000000000000600082015250565b60006122ba601883611575565b91506122c582612284565b602082019050919050565b600060208201905081810360008301526122e9816122ad565b9050919050565b7f45434453413a20696e76616c6964207369676e6174757265206c656e67746800600082015250565b6000612326601f83611575565b9150612331826122f0565b602082019050919050565b6000602082019050818103600083015261235581612319565b9050919050565b7f45434453413a20696e76616c6964207369676e6174757265202773272076616c60008201527f7565000000000000000000000000000000000000000000000000000000000000602082015250565b60006123b8602283611575565b91506123c38261235c565b604082019050919050565b600060208201905081810360008301526123e7816123ab565b905091905056fea26469706673582212203b6956fc919cec3791e1a1b85fd327a87ceeb0b92c4b98d50df6725e52cfc61164736f6c63430008090033",
  "linkReferences": {},
  "deployedLinkReferences": {}
}