{
  "_format": "hh-sol-artifact-1",
  "contractName": "CrowdFundingV1",
  "sourceName": "contracts/CrowdFundingV1.sol",
  "abi": [
    {
      "inputs": [],
      "stateMutability": "nonpayable",
      "type": "constructor"
    },
    {
      "anonymous": false,
      "inputs": [
        {
          "indexed": false,
          "internalType": "uint256",
          "name": "id",
          "type": "uint256"
        }
      ],
      "name": "Cancel",
      "type": "event"
    },
    {
      "anonymous": false,
      "inputs": [
        {
          "indexed": false,
          "internalType": "uint256",
          "name": "id",
          "type": "uint256"
        }
      ],
      "name": "Claim",
      "type": "event"
    },
    {
      "anonymous": false,
      "inputs": [
        {
          "indexed": false,
          "internalType": "uint8",
          "name": "version",
          "type": "uint8"
        }
      ],
      "name": "Initialized",
      "type": "event"
    },
    {
      "anonymous": false,
      "inputs": [
        {
          "indexed": false,
          "internalType": "uint256",
          "name": "id",
          "type": "uint256"
        },
        {
          "indexed": true,
          "internalType": "address",
          "name": "creator",
          "type": "address"
        },
        {
          "indexed": false,
          "internalType": "uint256",
          "name": "goal",
          "type": "uint256"
        },
        {
          "indexed": false,
          "internalType": "uint256",
          "name": "startAt",
          "type": "uint256"
        },
        {
          "indexed": false,
          "internalType": "uint256",
          "name": "endAt",
          "type": "uint256"
        }
      ],
      "name": "Launch",
      "type": "event"
    },
    {
      "anonymous": false,
      "inputs": [
        {
          "indexed": true,
          "internalType": "uint256",
          "name": "id",
          "type": "uint256"
        },
        {
          "indexed": true,
          "internalType": "address",
          "name": "caller",
          "type": "address"
        },
        {
          "indexed": false,
          "internalType": "uint256",
          "name": "amount",
          "type": "uint256"
        }
      ],
      "name": "Pledge",
      "type": "event"
    },
    {
      "anonymous": false,
      "inputs": [
        {
          "indexed": false,
          "internalType": "uint256",
          "name": "id",
          "type": "uint256"
        },
        {
          "indexed": true,
          "internalType": "address",
          "name": "caller",
          "type": "address"
        },
        {
          "indexed": false,
          "internalType": "uint256",
          "name": "amount",
          "type": "uint256"
        }
      ],
      "name": "Refund",
      "type": "event"
    },
    {
      "anonymous": false,
      "inputs": [
        {
          "indexed": true,
          "internalType": "uint256",
          "name": "id",
          "type": "uint256"
        },
        {
          "indexed": true,
          "internalType": "address",
          "name": "caller",
          "type": "address"
        },
        {
          "indexed": false,
          "internalType": "uint256",
          "name": "amount",
          "type": "uint256"
        }
      ],
      "name": "Unpledge",
      "type": "event"
    },
    {
      "inputs": [
        {
          "internalType": "uint256",
          "name": "",
          "type": "uint256"
        }
      ],
      "name": "campaigns",
      "outputs": [
        {
          "internalType": "address",
          "name": "creator",
          "type": "address"
        },
        {
          "internalType": "address",
          "name": "token",
          "type": "address"
        },
        {
          "internalType": "uint256",
          "name": "goal",
          "type": "uint256"
        },
        {
          "internalType": "uint256",
          "name": "pledged",
          "type": "uint256"
        },
        {
          "internalType": "uint256",
          "name": "startAt",
          "type": "uint256"
        },
        {
          "internalType": "uint256",
          "name": "endAt",
          "type": "uint256"
        },
        {
          "internalType": "bool",
          "name": "claimed",
          "type": "bool"
        }
      ],
      "stateMutability": "view",
      "type": "function"
    },
    {
      "inputs": [
        {
          "internalType": "uint256",
          "name": "_id",
          "type": "uint256"
        }
      ],
      "name": "cancel",
      "outputs": [],
      "stateMutability": "nonpayable",
      "type": "function"
    },
    {
      "inputs": [
        {
          "internalType": "uint256",
          "name": "_id",
          "type": "uint256"
        }
      ],
      "name": "claim",
      "outputs": [],
      "stateMutability": "nonpayable",
      "type": "function"
    },
    {
      "inputs": [],
      "name": "count",
      "outputs": [
        {
          "internalType": "uint256",
          "name": "",
          "type": "uint256"
        }
      ],
      "stateMutability": "view",
      "type": "function"
    },
    {
      "inputs": [
        {
          "internalType": "uint256",
          "name": "_maxDuration",
          "type": "uint256"
        }
      ],
      "name": "initialize",
      "outputs": [],
      "stateMutability": "nonpayable",
      "type": "function"
    },
    {
      "inputs": [
        {
          "internalType": "uint256",
          "name": "_goal",
          "type": "uint256"
        },
        {
          "internalType": "address",
          "name": "_token",
          "type": "address"
        },
        {
          "internalType": "uint256",
          "name": "_startAt",
          "type": "uint256"
        },
        {
          "internalType": "uint256",
          "name": "_endAt",
          "type": "uint256"
        }
      ],
      "name": "launch",
      "outputs": [],
      "stateMutability": "nonpayable",
      "type": "function"
    },
    {
      "inputs": [],
      "name": "maxDuration",
      "outputs": [
        {
          "internalType": "uint256",
          "name": "",
          "type": "uint256"
        }
      ],
      "stateMutability": "view",
      "type": "function"
    },
    {
      "inputs": [
        {
          "internalType": "uint256",
          "name": "_id",
          "type": "uint256"
        },
        {
          "internalType": "uint256",
          "name": "_amount",
          "type": "uint256"
        }
      ],
      "name": "pledge",
      "outputs": [],
      "stateMutability": "nonpayable",
      "type": "function"
    },
    {
      "inputs": [
        {
          "internalType": "uint256",
          "name": "",
          "type": "uint256"
        },
        {
          "internalType": "address",
          "name": "",
          "type": "address"
        }
      ],
      "name": "pledgedAmount",
      "outputs": [
        {
          "internalType": "uint256",
          "name": "",
          "type": "uint256"
        }
      ],
      "stateMutability": "view",
      "type": "function"
    },
    {
      "inputs": [
        {
          "internalType": "uint256",
          "name": "_id",
          "type": "uint256"
        }
      ],
      "name": "refund",
      "outputs": [],
      "stateMutability": "nonpayable",
      "type": "function"
    },
    {
      "inputs": [
        {
          "internalType": "uint256",
          "name": "_id",
          "type": "uint256"
        },
        {
          "internalType": "uint256",
          "name": "_amount",
          "type": "uint256"
        }
      ],
      "name": "unPledge",
      "outputs": [],
      "stateMutability": "nonpayable",
      "type": "function"
    }
  ],
  "bytecode": "0x60806040523480156200001157600080fd5b50620000226200002860201b60201c565b620001d3565b600060019054906101000a900460ff16156200007b576040517f08c379a0000000000000000000000000000000000000000000000000000000008152600401620000729062000176565b60405180910390fd5b60ff801660008054906101000a900460ff1660ff161015620000ed5760ff6000806101000a81548160ff021916908360ff1602179055507f7f26b83ff96e1f2b6a682f133852f6798a09c465da95921460cefb384740249860ff604051620000e49190620001b6565b60405180910390a15b565b600082825260208201905092915050565b7f496e697469616c697a61626c653a20636f6e747261637420697320696e69746960008201527f616c697a696e6700000000000000000000000000000000000000000000000000602082015250565b60006200015e602783620000ef565b91506200016b8262000100565b604082019050919050565b6000602082019050818103600083015262000191816200014f565b9050919050565b600060ff82169050919050565b620001b08162000198565b82525050565b6000602082019050620001cd6000830184620001a5565b92915050565b611ff680620001e36000396000f3fe608060405234801561001057600080fd5b50600436106100a95760003560e01c80636db5c8fd116100715780636db5c8fd14610156578063a3a0e93614610174578063aa4fb63a14610190578063e52ad4e5146101c0578063fde327be146101dc578063fe4b84df146101f8576100a9565b806306661abd146100ae578063141961bc146100cc578063278ecde114610102578063379607f51461011e57806340e58ee51461013a575b600080fd5b6100b6610214565b6040516100c39190611465565b60405180910390f35b6100e660048036038101906100e191906114b1565b61021a565b6040516100f9979695949392919061153a565b60405180910390f35b61011c600480360381019061011791906114b1565b6102a9565b005b610138600480360381019061013391906114b1565b6105dc565b005b610154600480360381019061014f91906114b1565b61089a565b005b61015e610b36565b60405161016b9190611465565b60405180910390f35b61018e600480360381019061018991906115a9565b610b3c565b005b6101aa60048036038101906101a59190611615565b610dfc565b6040516101b79190611465565b60405180910390f35b6101da60048036038101906101d59190611655565b610e21565b005b6101f660048036038101906101f191906115a9565b6110bc565b005b610212600480360381019061020d91906114b1565b6112eb565b005b60015481565b60036020528060005260406000206000915090508060000160009054906101000a900473ffffffffffffffffffffffffffffffffffffffff16908060010160009054906101000a900473ffffffffffffffffffffffffffffffffffffffff16908060020154908060030154908060040154908060050154908060060160009054906101000a900460ff16905087565b6000600360008381526020019081526020016000206040518060e00160405290816000820160009054906101000a900473ffffffffffffffffffffffffffffffffffffffff1673ffffffffffffffffffffffffffffffffffffffff1673ffffffffffffffffffffffffffffffffffffffff1681526020016001820160009054906101000a900473ffffffffffffffffffffffffffffffffffffffff1673ffffffffffffffffffffffffffffffffffffffff1673ffffffffffffffffffffffffffffffffffffffff168152602001600282015481526020016003820154815260200160048201548152602001600582015481526020016006820160009054906101000a900460ff16151515158152505090508060a001514211610400576040517f08c379a00000000000000000000000000000000000000000000000000000000081526004016103f790611719565b60405180910390fd5b806040015181606001511061044a576040517f08c379a0000000000000000000000000000000000000000000000000000000008152600401610441906117ab565b60405180910390fd5b60006004600084815260200190815260200160002060003373ffffffffffffffffffffffffffffffffffffffff1673ffffffffffffffffffffffffffffffffffffffff16815260200190815260200160002054905060006004600085815260200190815260200160002060003373ffffffffffffffffffffffffffffffffffffffff1673ffffffffffffffffffffffffffffffffffffffff16815260200190815260200160002081905550816020015173ffffffffffffffffffffffffffffffffffffffff1663a9059cbb33836040518363ffffffff1660e01b81526004016105349291906117cb565b602060405180830381600087803b15801561054e57600080fd5b505af1158015610562573d6000803e3d6000fd5b505050506040513d601f19601f820116820180604052508101906105869190611820565b503373ffffffffffffffffffffffffffffffffffffffff167f21e12a7cad0da5928167e1084ea4d5fdf8d9af66657a2543a9ac76a0ca08147784836040516105cf92919061184d565b60405180910390a2505050565b60006003600083815260200190815260200160002090503373ffffffffffffffffffffffffffffffffffffffff168160000160009054906101000a900473ffffffffffffffffffffffffffffffffffffffff1673ffffffffffffffffffffffffffffffffffffffff1614610685576040517f08c379a000000000000000000000000000000000000000000000000000000000815260040161067c906118c2565b60405180910390fd5b806005015442116106cb576040517f08c379a00000000000000000000000000000000000000000000000000000000081526004016106c29061192e565b60405180910390fd5b806002015481600301541015610716576040517f08c379a000000000000000000000000000000000000000000000000000000000815260040161070d9061199a565b60405180910390fd5b8060060160009054906101000a900460ff1615610768576040517f08c379a000000000000000000000000000000000000000000000000000000000815260040161075f90611a06565b60405180910390fd5b60018160060160006101000a81548160ff0219169083151502179055508060010160009054906101000a900473ffffffffffffffffffffffffffffffffffffffff1673ffffffffffffffffffffffffffffffffffffffff1663a9059cbb8260000160009054906101000a900473ffffffffffffffffffffffffffffffffffffffff1683600301546040518363ffffffff1660e01b815260040161080c9291906117cb565b602060405180830381600087803b15801561082657600080fd5b505af115801561083a573d6000803e3d6000fd5b505050506040513d601f19601f8201168201806040525081019061085e9190611820565b507f7bb2b3c10797baccb6f8c4791f1edd6ca2f0d028ee0eda64b01a9a57e3a653f78260405161088e9190611465565b60405180910390a15050565b6000600360008381526020019081526020016000206040518060e00160405290816000820160009054906101000a900473ffffffffffffffffffffffffffffffffffffffff1673ffffffffffffffffffffffffffffffffffffffff1673ffffffffffffffffffffffffffffffffffffffff1681526020016001820160009054906101000a900473ffffffffffffffffffffffffffffffffffffffff1673ffffffffffffffffffffffffffffffffffffffff1673ffffffffffffffffffffffffffffffffffffffff168152602001600282015481526020016003820154815260200160048201548152602001600582015481526020016006820160009054906101000a900460ff16151515158152505090503373ffffffffffffffffffffffffffffffffffffffff16816000015173ffffffffffffffffffffffffffffffffffffffff1614610a1d576040517f08c379a0000000000000000000000000000000000000000000000000000000008152600401610a14906118c2565b60405180910390fd5b80608001514210610a63576040517f08c379a0000000000000000000000000000000000000000000000000000000008152600401610a5a90611a72565b60405180910390fd5b60036000838152602001908152602001600020600080820160006101000a81549073ffffffffffffffffffffffffffffffffffffffff02191690556001820160006101000a81549073ffffffffffffffffffffffffffffffffffffffff021916905560028201600090556003820160009055600482016000905560058201600090556006820160006101000a81549060ff021916905550507f8bf30e7ff26833413be5f69e1d373744864d600b664204b4a2f9844a8eedb9ed82604051610b2a9190611465565b60405180910390a15050565b60025481565b60006003600084815260200190815260200160002090508060040154421015610b9a576040517f08c379a0000000000000000000000000000000000000000000000000000000008152600401610b9190611ade565b60405180910390fd5b8060050154421115610be1576040517f08c379a0000000000000000000000000000000000000000000000000000000008152600401610bd890611b4a565b60405180910390fd5b816004600085815260200190815260200160002060003373ffffffffffffffffffffffffffffffffffffffff1673ffffffffffffffffffffffffffffffffffffffff168152602001908152602001600020541015610c74576040517f08c379a0000000000000000000000000000000000000000000000000000000008152600401610c6b90611bdc565b60405180910390fd5b81816003016000828254610c889190611c2b565b92505081905550816004600085815260200190815260200160002060003373ffffffffffffffffffffffffffffffffffffffff1673ffffffffffffffffffffffffffffffffffffffff1681526020019081526020016000206000828254610cef9190611c2b565b925050819055508060010160009054906101000a900473ffffffffffffffffffffffffffffffffffffffff1673ffffffffffffffffffffffffffffffffffffffff1663a9059cbb33846040518363ffffffff1660e01b8152600401610d559291906117cb565b602060405180830381600087803b158015610d6f57600080fd5b505af1158015610d83573d6000803e3d6000fd5b505050506040513d601f19601f82011682018060405250810190610da79190611820565b503373ffffffffffffffffffffffffffffffffffffffff16837f2eeeab891b26a214d1b25749f88a406bdea852bd8c9bfda977e0ef8114c180ba84604051610def9190611465565b60405180910390a3505050565b6004602052816000526040600020602052806000526040600020600091509150505481565b42821015610e64576040517f08c379a0000000000000000000000000000000000000000000000000000000008152600401610e5b90611cd1565b60405180910390fd5b818111610ea6576040517f08c379a0000000000000000000000000000000000000000000000000000000008152600401610e9d90611d3d565b60405180910390fd5b60025442610eb49190611d5d565b811115610ef6576040517f08c379a0000000000000000000000000000000000000000000000000000000008152600401610eed90611e25565b60405180910390fd5b6001806000828254610f089190611d5d565b925050819055506040518060e001604052803373ffffffffffffffffffffffffffffffffffffffff1681526020018473ffffffffffffffffffffffffffffffffffffffff168152602001858152602001600081526020018381526020018281526020016000151581525060036000600154815260200190815260200160002060008201518160000160006101000a81548173ffffffffffffffffffffffffffffffffffffffff021916908373ffffffffffffffffffffffffffffffffffffffff16021790555060208201518160010160006101000a81548173ffffffffffffffffffffffffffffffffffffffff021916908373ffffffffffffffffffffffffffffffffffffffff16021790555060408201518160020155606082015181600301556080820151816004015560a0820151816005015560c08201518160060160006101000a81548160ff0219169083151502179055509050503373ffffffffffffffffffffffffffffffffffffffff167fc9142a9424eb889eb9f9493aeb5b3b9ffffe3e32c9361bd725d709f6b28b91b16001548685856040516110ae9493929190611e45565b60405180910390a250505050565b6000600360008481526020019081526020016000209050806004015442101561111a576040517f08c379a000000000000000000000000000000000000000000000000000000000815260040161111190611ade565b60405180910390fd5b8060050154421115611161576040517f08c379a000000000000000000000000000000000000000000000000000000000815260040161115890611b4a565b60405180910390fd5b818160030160008282546111759190611d5d565b92505081905550816004600085815260200190815260200160002060003373ffffffffffffffffffffffffffffffffffffffff1673ffffffffffffffffffffffffffffffffffffffff16815260200190815260200160002060008282546111dc9190611d5d565b925050819055508060010160009054906101000a900473ffffffffffffffffffffffffffffffffffffffff1673ffffffffffffffffffffffffffffffffffffffff166323b872dd3330856040518463ffffffff1660e01b815260040161124493929190611e8a565b602060405180830381600087803b15801561125e57600080fd5b505af1158015611272573d6000803e3d6000fd5b505050506040513d601f19601f820116820180604052508101906112969190611820565b503373ffffffffffffffffffffffffffffffffffffffff16837f06bdb975df800a73232998e71ed585d536222f1dfeaa622d7f62a23ada686c82846040516112de9190611465565b60405180910390a3505050565b60008060019054906101000a900460ff1615905080801561131c5750600160008054906101000a900460ff1660ff16105b80611349575061132b30611429565b1580156113485750600160008054906101000a900460ff1660ff16145b5b611388576040517f08c379a000000000000000000000000000000000000000000000000000000000815260040161137f90611f33565b60405180910390fd5b60016000806101000a81548160ff021916908360ff16021790555080156113c5576001600060016101000a81548160ff0219169083151502179055505b8160028190555080156114255760008060016101000a81548160ff0219169083151502179055507f7f26b83ff96e1f2b6a682f133852f6798a09c465da95921460cefb3847402498600160405161141c9190611fa5565b60405180910390a15b5050565b6000808273ffffffffffffffffffffffffffffffffffffffff163b119050919050565b6000819050919050565b61145f8161144c565b82525050565b600060208201905061147a6000830184611456565b92915050565b600080fd5b61148e8161144c565b811461149957600080fd5b50565b6000813590506114ab81611485565b92915050565b6000602082840312156114c7576114c6611480565b5b60006114d58482850161149c565b91505092915050565b600073ffffffffffffffffffffffffffffffffffffffff82169050919050565b6000611509826114de565b9050919050565b611519816114fe565b82525050565b60008115159050919050565b6115348161151f565b82525050565b600060e08201905061154f600083018a611510565b61155c6020830189611510565b6115696040830188611456565b6115766060830187611456565b6115836080830186611456565b61159060a0830185611456565b61159d60c083018461152b565b98975050505050505050565b600080604083850312156115c0576115bf611480565b5b60006115ce8582860161149c565b92505060206115df8582860161149c565b9150509250929050565b6115f2816114fe565b81146115fd57600080fd5b50565b60008135905061160f816115e9565b92915050565b6000806040838503121561162c5761162b611480565b5b600061163a8582860161149c565b925050602061164b85828601611600565b9150509250929050565b6000806000806080858703121561166f5761166e611480565b5b600061167d8782880161149c565b945050602061168e87828801611600565b935050604061169f8782880161149c565b92505060606116b08782880161149c565b91505092959194509250565b600082825260208201905092915050565b7f6e6f7420656e6465640000000000000000000000000000000000000000000000600082015250565b60006117036009836116bc565b915061170e826116cd565b602082019050919050565b60006020820190508181036000830152611732816116f6565b9050919050565b7f596f752063616e6e6f742057697468647261772c2043616d706169676e20686160008201527f7320737563636565646564000000000000000000000000000000000000000000602082015250565b6000611795602b836116bc565b91506117a082611739565b604082019050919050565b600060208201905081810360008301526117c481611788565b9050919050565b60006040820190506117e06000830185611510565b6117ed6020830184611456565b9392505050565b6117fd8161151f565b811461180857600080fd5b50565b60008151905061181a816117f4565b92915050565b60006020828403121561183657611835611480565b5b60006118448482850161180b565b91505092915050565b60006040820190506118626000830185611456565b61186f6020830184611456565b9392505050565b7f596f7520646964206e6f742063726561746520746869732043616d706169676e600082015250565b60006118ac6020836116bc565b91506118b782611876565b602082019050919050565b600060208201905081810360008301526118db8161189f565b9050919050565b7f43616d706169676e20686173206e6f7420656e64656400000000000000000000600082015250565b60006119186016836116bc565b9150611923826118e2565b602082019050919050565b600060208201905081810360008301526119478161190b565b9050919050565b7f43616d706169676e20646964206e6f7420737563636564000000000000000000600082015250565b60006119846017836116bc565b915061198f8261194e565b602082019050919050565b600060208201905081810360008301526119b381611977565b9050919050565b7f636c61696d656400000000000000000000000000000000000000000000000000600082015250565b60006119f06007836116bc565b91506119fb826119ba565b602082019050919050565b60006020820190508181036000830152611a1f816119e3565b9050919050565b7f43616d706169676e2068617320616c7265616479207374617274656400000000600082015250565b6000611a5c601c836116bc565b9150611a6782611a26565b602082019050919050565b60006020820190508181036000830152611a8b81611a4f565b9050919050565b7f43616d706169676e20686173206e6f7420537461727465642079657400000000600082015250565b6000611ac8601c836116bc565b9150611ad382611a92565b602082019050919050565b60006020820190508181036000830152611af781611abb565b9050919050565b7f43616d706169676e2068617320616c726561647920656e646564000000000000600082015250565b6000611b34601a836116bc565b9150611b3f82611afe565b602082019050919050565b60006020820190508181036000830152611b6381611b27565b9050919050565b7f596f7520646f206e6f74206861766520656e6f75676820746f6b656e7320506c60008201527f656467656420746f207769746872617700000000000000000000000000000000602082015250565b6000611bc66030836116bc565b9150611bd182611b6a565b604082019050919050565b60006020820190508181036000830152611bf581611bb9565b9050919050565b7f4e487b7100000000000000000000000000000000000000000000000000000000600052601160045260246000fd5b6000611c368261144c565b9150611c418361144c565b925082821015611c5457611c53611bfc565b5b828203905092915050565b7f53746172742074696d65206973206c657373207468616e2063757272656e742060008201527f426c6f636b2054696d657374616d700000000000000000000000000000000000602082015250565b6000611cbb602f836116bc565b9150611cc682611c5f565b604082019050919050565b60006020820190508181036000830152611cea81611cae565b9050919050565b7f456e642074696d65206973206c657373207468616e2053746172742074696d65600082015250565b6000611d276020836116bc565b9150611d3282611cf1565b602082019050919050565b60006020820190508181036000830152611d5681611d1a565b9050919050565b6000611d688261144c565b9150611d738361144c565b9250827fffffffffffffffffffffffffffffffffffffffffffffffffffffffffffffffff03821115611da857611da7611bfc565b5b828201905092915050565b7f456e642074696d65206578636565647320746865206d6178696d756d2044757260008201527f6174696f6e000000000000000000000000000000000000000000000000000000602082015250565b6000611e0f6025836116bc565b9150611e1a82611db3565b604082019050919050565b60006020820190508181036000830152611e3e81611e02565b9050919050565b6000608082019050611e5a6000830187611456565b611e676020830186611456565b611e746040830185611456565b611e816060830184611456565b95945050505050565b6000606082019050611e9f6000830186611510565b611eac6020830185611510565b611eb96040830184611456565b949350505050565b7f496e697469616c697a61626c653a20636f6e747261637420697320616c72656160008201527f647920696e697469616c697a6564000000000000000000000000000000000000602082015250565b6000611f1d602e836116bc565b9150611f2882611ec1565b604082019050919050565b60006020820190508181036000830152611f4c81611f10565b9050919050565b6000819050919050565b600060ff82169050919050565b6000819050919050565b6000611f8f611f8a611f8584611f53565b611f6a565b611f5d565b9050919050565b611f9f81611f74565b82525050565b6000602082019050611fba6000830184611f96565b9291505056fea26469706673582212200e61113fe85a1f4b266f1589ff4867909f4c26f07e060c8028b28e015d14354364736f6c63430008090033",
  "linkReferences": {},
  "deployedLinkReferences": {}
}