{
  "_format": "hh-sol-artifact-1",
  "contractName": "CrowdFundingV1",
  "sourceName": "contracts/CrowdFundingV1.sol",
  "abi": [
    {
      "inputs": [],
      "stateMutability": "nonpayable",
      "type": "constructor"
    },
    {
      "anonymous": false,
      "inputs": [
        {
          "indexed": false,
          "internalType": "uint256",
          "name": "id",
          "type": "uint256"
        }
      ],
      "name": "Cancel",
      "type": "event"
    },
    {
      "anonymous": false,
      "inputs": [
        {
          "indexed": false,
          "internalType": "uint256",
          "name": "id",
          "type": "uint256"
        }
      ],
      "name": "Claim",
      "type": "event"
    },
    {
      "anonymous": false,
      "inputs": [
        {
          "indexed": false,
          "internalType": "uint8",
          "name": "version",
          "type": "uint8"
        }
      ],
      "name": "Initialized",
      "type": "event"
    },
    {
      "anonymous": false,
      "inputs": [
        {
          "indexed": false,
          "internalType": "uint256",
          "name": "id",
          "type": "uint256"
        },
        {
          "indexed": true,
          "internalType": "address",
          "name": "creator",
          "type": "address"
        },
        {
          "indexed": false,
          "internalType": "address",
          "name": "token",
          "type": "address"
        },
        {
          "indexed": false,
          "internalType": "uint256",
          "name": "goal",
          "type": "uint256"
        },
        {
          "indexed": false,
          "internalType": "uint32",
          "name": "startAt",
          "type": "uint32"
        },
        {
          "indexed": false,
          "internalType": "uint32",
          "name": "endAt",
          "type": "uint32"
        }
      ],
      "name": "Launch",
      "type": "event"
    },
    {
      "anonymous": false,
      "inputs": [
        {
          "indexed": true,
          "internalType": "address",
          "name": "previousOwner",
          "type": "address"
        },
        {
          "indexed": true,
          "internalType": "address",
          "name": "newOwner",
          "type": "address"
        }
      ],
      "name": "OwnershipTransferred",
      "type": "event"
    },
    {
      "anonymous": false,
      "inputs": [
        {
          "indexed": false,
          "internalType": "address",
          "name": "account",
          "type": "address"
        }
      ],
      "name": "Paused",
      "type": "event"
    },
    {
      "anonymous": false,
      "inputs": [
        {
          "indexed": true,
          "internalType": "uint256",
          "name": "id",
          "type": "uint256"
        },
        {
          "indexed": true,
          "internalType": "address",
          "name": "caller",
          "type": "address"
        },
        {
          "indexed": false,
          "internalType": "uint256",
          "name": "amount",
          "type": "uint256"
        }
      ],
      "name": "Pledge",
      "type": "event"
    },
    {
      "anonymous": false,
      "inputs": [
        {
          "indexed": false,
          "internalType": "uint256",
          "name": "id",
          "type": "uint256"
        },
        {
          "indexed": true,
          "internalType": "address",
          "name": "caller",
          "type": "address"
        },
        {
          "indexed": false,
          "internalType": "uint256",
          "name": "amount",
          "type": "uint256"
        }
      ],
      "name": "Refund",
      "type": "event"
    },
    {
      "anonymous": false,
      "inputs": [
        {
          "indexed": false,
          "internalType": "address",
          "name": "account",
          "type": "address"
        }
      ],
      "name": "Unpaused",
      "type": "event"
    },
    {
      "anonymous": false,
      "inputs": [
        {
          "indexed": true,
          "internalType": "uint256",
          "name": "id",
          "type": "uint256"
        },
        {
          "indexed": true,
          "internalType": "address",
          "name": "caller",
          "type": "address"
        },
        {
          "indexed": false,
          "internalType": "uint256",
          "name": "amount",
          "type": "uint256"
        }
      ],
      "name": "Unpledge",
      "type": "event"
    },
    {
      "inputs": [
        {
          "internalType": "uint256",
          "name": "",
          "type": "uint256"
        }
      ],
      "name": "campaigns",
      "outputs": [
        {
          "internalType": "address",
          "name": "creator",
          "type": "address"
        },
        {
          "internalType": "contract IERC20",
          "name": "token",
          "type": "address"
        },
        {
          "internalType": "uint256",
          "name": "goal",
          "type": "uint256"
        },
        {
          "internalType": "uint256",
          "name": "pledged",
          "type": "uint256"
        },
        {
          "internalType": "uint256",
          "name": "startAt",
          "type": "uint256"
        },
        {
          "internalType": "uint256",
          "name": "endAt",
          "type": "uint256"
        },
        {
          "internalType": "bool",
          "name": "claimed",
          "type": "bool"
        }
      ],
      "stateMutability": "view",
      "type": "function"
    },
    {
      "inputs": [
        {
          "internalType": "uint256",
          "name": "_id",
          "type": "uint256"
        }
      ],
      "name": "cancel",
      "outputs": [],
      "stateMutability": "nonpayable",
      "type": "function"
    },
    {
      "inputs": [
        {
          "internalType": "uint256",
          "name": "_id",
          "type": "uint256"
        }
      ],
      "name": "claim",
      "outputs": [],
      "stateMutability": "nonpayable",
      "type": "function"
    },
    {
      "inputs": [],
      "name": "count",
      "outputs": [
        {
          "internalType": "uint256",
          "name": "",
          "type": "uint256"
        }
      ],
      "stateMutability": "view",
      "type": "function"
    },
    {
      "inputs": [
        {
          "internalType": "uint256",
          "name": "_maxDuration",
          "type": "uint256"
        }
      ],
      "name": "initialize",
      "outputs": [],
      "stateMutability": "nonpayable",
      "type": "function"
    },
    {
      "inputs": [
        {
          "internalType": "uint256",
          "name": "_goal",
          "type": "uint256"
        },
        {
          "internalType": "uint32",
          "name": "_startAt",
          "type": "uint32"
        },
        {
          "internalType": "uint32",
          "name": "_endAt",
          "type": "uint32"
        },
        {
          "internalType": "address",
          "name": "_token",
          "type": "address"
        }
      ],
      "name": "launch",
      "outputs": [],
      "stateMutability": "nonpayable",
      "type": "function"
    },
    {
      "inputs": [],
      "name": "maxDuration",
      "outputs": [
        {
          "internalType": "uint256",
          "name": "",
          "type": "uint256"
        }
      ],
      "stateMutability": "view",
      "type": "function"
    },
    {
      "inputs": [],
      "name": "owner",
      "outputs": [
        {
          "internalType": "address",
          "name": "",
          "type": "address"
        }
      ],
      "stateMutability": "view",
      "type": "function"
    },
    {
      "inputs": [],
      "name": "pause",
      "outputs": [],
      "stateMutability": "nonpayable",
      "type": "function"
    },
    {
      "inputs": [],
      "name": "paused",
      "outputs": [
        {
          "internalType": "bool",
          "name": "",
          "type": "bool"
        }
      ],
      "stateMutability": "view",
      "type": "function"
    },
    {
      "inputs": [
        {
          "internalType": "uint256",
          "name": "_id",
          "type": "uint256"
        },
        {
          "internalType": "uint256",
          "name": "_amount",
          "type": "uint256"
        }
      ],
      "name": "pledge",
      "outputs": [],
      "stateMutability": "nonpayable",
      "type": "function"
    },
    {
      "inputs": [
        {
          "internalType": "uint256",
          "name": "",
          "type": "uint256"
        },
        {
          "internalType": "address",
          "name": "",
          "type": "address"
        }
      ],
      "name": "pledgedAmount",
      "outputs": [
        {
          "internalType": "uint256",
          "name": "",
          "type": "uint256"
        }
      ],
      "stateMutability": "view",
      "type": "function"
    },
    {
      "inputs": [
        {
          "internalType": "uint256",
          "name": "_id",
          "type": "uint256"
        }
      ],
      "name": "refund",
      "outputs": [],
      "stateMutability": "nonpayable",
      "type": "function"
    },
    {
      "inputs": [],
      "name": "renounceOwnership",
      "outputs": [],
      "stateMutability": "nonpayable",
      "type": "function"
    },
    {
      "inputs": [
        {
          "internalType": "address",
          "name": "newOwner",
          "type": "address"
        }
      ],
      "name": "transferOwnership",
      "outputs": [],
      "stateMutability": "nonpayable",
      "type": "function"
    },
    {
      "inputs": [
        {
          "internalType": "uint256",
          "name": "_id",
          "type": "uint256"
        },
        {
          "internalType": "uint256",
          "name": "_amount",
          "type": "uint256"
        }
      ],
      "name": "unPledge",
      "outputs": [],
      "stateMutability": "nonpayable",
      "type": "function"
    },
    {
      "inputs": [],
      "name": "unpause",
      "outputs": [],
      "stateMutability": "nonpayable",
      "type": "function"
    }
  ],
  "bytecode": "0x60806040523480156200001157600080fd5b50620000226200002860201b60201c565b620001d3565b600060019054906101000a900460ff16156200007b576040517f08c379a0000000000000000000000000000000000000000000000000000000008152600401620000729062000176565b60405180910390fd5b60ff801660008054906101000a900460ff1660ff161015620000ed5760ff6000806101000a81548160ff021916908360ff1602179055507f7f26b83ff96e1f2b6a682f133852f6798a09c465da95921460cefb384740249860ff604051620000e49190620001b6565b60405180910390a15b565b600082825260208201905092915050565b7f496e697469616c697a61626c653a20636f6e747261637420697320696e69746960008201527f616c697a696e6700000000000000000000000000000000000000000000000000602082015250565b60006200015e602783620000ef565b91506200016b8262000100565b604082019050919050565b6000602082019050818103600083015262000191816200014f565b9050919050565b600060ff82169050919050565b620001b08162000198565b82525050565b6000602082019050620001cd6000830184620001a5565b92915050565b61295880620001e36000396000f3fe608060405234801561001057600080fd5b506004361061010b5760003560e01c8063715018a6116100a2578063a3a0e93611610071578063a3a0e9361461024c578063aa4fb63a14610268578063f2fde38b14610298578063fde327be146102b4578063fe4b84df146102d05761010b565b8063715018a6146101fe5780638456cb59146102085780638da5cb5b14610212578063a047c996146102305761010b565b80633f4ba83a116100de5780633f4ba83a1461019c57806340e58ee5146101a65780635c975abb146101c25780636db5c8fd146101e05761010b565b806306661abd14610110578063141961bc1461012e578063278ecde114610164578063379607f514610180575b600080fd5b6101186102ec565b6040516101259190611a4e565b60405180910390f35b61014860048036038101906101439190611a9a565b6102f2565b60405161015b9796959493929190611b82565b60405180910390f35b61017e60048036038101906101799190611a9a565b610381565b005b61019a60048036038101906101959190611a9a565b6106b4565b005b6101a4610972565b005b6101c060048036038101906101bb9190611a9a565b610984565b005b6101ca610c20565b6040516101d79190611bf1565b60405180910390f35b6101e8610c37565b6040516101f59190611a4e565b60405180910390f35b610206610c3d565b005b610210610c51565b005b61021a610c63565b6040516102279190611c0c565b60405180910390f35b61024a60048036038101906102459190611c8f565b610c8d565b005b61026660048036038101906102619190611cf6565b610f4f565b005b610282600480360381019061027d9190611d36565b61120f565b60405161028f9190611a4e565b60405180910390f35b6102b260048036038101906102ad9190611d76565b611234565b005b6102ce60048036038101906102c99190611cf6565b6112b8565b005b6102ea60048036038101906102e59190611a9a565b6114a0565b005b60975481565b60996020528060005260406000206000915090508060000160009054906101000a900473ffffffffffffffffffffffffffffffffffffffff16908060010160009054906101000a900473ffffffffffffffffffffffffffffffffffffffff16908060020154908060030154908060040154908060050154908060060160009054906101000a900460ff16905087565b6000609960008381526020019081526020016000206040518060e00160405290816000820160009054906101000a900473ffffffffffffffffffffffffffffffffffffffff1673ffffffffffffffffffffffffffffffffffffffff1673ffffffffffffffffffffffffffffffffffffffff1681526020016001820160009054906101000a900473ffffffffffffffffffffffffffffffffffffffff1673ffffffffffffffffffffffffffffffffffffffff1673ffffffffffffffffffffffffffffffffffffffff168152602001600282015481526020016003820154815260200160048201548152602001600582015481526020016006820160009054906101000a900460ff16151515158152505090508060a0015142116104d8576040517f08c379a00000000000000000000000000000000000000000000000000000000081526004016104cf90611e00565b60405180910390fd5b8060400151816060015110610522576040517f08c379a000000000000000000000000000000000000000000000000000000000815260040161051990611e92565b60405180910390fd5b6000609a600084815260200190815260200160002060003373ffffffffffffffffffffffffffffffffffffffff1673ffffffffffffffffffffffffffffffffffffffff1681526020019081526020016000205490506000609a600085815260200190815260200160002060003373ffffffffffffffffffffffffffffffffffffffff1673ffffffffffffffffffffffffffffffffffffffff16815260200190815260200160002081905550816020015173ffffffffffffffffffffffffffffffffffffffff1663a9059cbb33836040518363ffffffff1660e01b815260040161060c929190611eb2565b602060405180830381600087803b15801561062657600080fd5b505af115801561063a573d6000803e3d6000fd5b505050506040513d601f19601f8201168201806040525081019061065e9190611f07565b503373ffffffffffffffffffffffffffffffffffffffff167f21e12a7cad0da5928167e1084ea4d5fdf8d9af66657a2543a9ac76a0ca08147784836040516106a7929190611f34565b60405180910390a2505050565b60006099600083815260200190815260200160002090503373ffffffffffffffffffffffffffffffffffffffff168160000160009054906101000a900473ffffffffffffffffffffffffffffffffffffffff1673ffffffffffffffffffffffffffffffffffffffff161461075d576040517f08c379a000000000000000000000000000000000000000000000000000000000815260040161075490611fa9565b60405180910390fd5b806005015442116107a3576040517f08c379a000000000000000000000000000000000000000000000000000000000815260040161079a90612015565b60405180910390fd5b8060020154816003015410156107ee576040517f08c379a00000000000000000000000000000000000000000000000000000000081526004016107e590612081565b60405180910390fd5b8060060160009054906101000a900460ff1615610840576040517f08c379a0000000000000000000000000000000000000000000000000000000008152600401610837906120ed565b60405180910390fd5b60018160060160006101000a81548160ff0219169083151502179055508060010160009054906101000a900473ffffffffffffffffffffffffffffffffffffffff1673ffffffffffffffffffffffffffffffffffffffff1663a9059cbb8260000160009054906101000a900473ffffffffffffffffffffffffffffffffffffffff1683600301546040518363ffffffff1660e01b81526004016108e4929190611eb2565b602060405180830381600087803b1580156108fe57600080fd5b505af1158015610912573d6000803e3d6000fd5b505050506040513d601f19601f820116820180604052508101906109369190611f07565b507f7bb2b3c10797baccb6f8c4791f1edd6ca2f0d028ee0eda64b01a9a57e3a653f7826040516109669190611a4e565b60405180910390a15050565b61097a6115ee565b61098261166c565b565b6000609960008381526020019081526020016000206040518060e00160405290816000820160009054906101000a900473ffffffffffffffffffffffffffffffffffffffff1673ffffffffffffffffffffffffffffffffffffffff1673ffffffffffffffffffffffffffffffffffffffff1681526020016001820160009054906101000a900473ffffffffffffffffffffffffffffffffffffffff1673ffffffffffffffffffffffffffffffffffffffff1673ffffffffffffffffffffffffffffffffffffffff168152602001600282015481526020016003820154815260200160048201548152602001600582015481526020016006820160009054906101000a900460ff16151515158152505090503373ffffffffffffffffffffffffffffffffffffffff16816000015173ffffffffffffffffffffffffffffffffffffffff1614610b07576040517f08c379a0000000000000000000000000000000000000000000000000000000008152600401610afe90611fa9565b60405180910390fd5b80608001514210610b4d576040517f08c379a0000000000000000000000000000000000000000000000000000000008152600401610b4490612159565b60405180910390fd5b60996000838152602001908152602001600020600080820160006101000a81549073ffffffffffffffffffffffffffffffffffffffff02191690556001820160006101000a81549073ffffffffffffffffffffffffffffffffffffffff021916905560028201600090556003820160009055600482016000905560058201600090556006820160006101000a81549060ff021916905550507f8bf30e7ff26833413be5f69e1d373744864d600b664204b4a2f9844a8eedb9ed82604051610c149190611a4e565b60405180910390a15050565b6000603360009054906101000a900460ff16905090565b60985481565b610c456115ee565b610c4f60006116cf565b565b610c596115ee565b610c61611795565b565b6000606560009054906101000a900473ffffffffffffffffffffffffffffffffffffffff16905090565b428363ffffffff161015610cd6576040517f08c379a0000000000000000000000000000000000000000000000000000000008152600401610ccd906121eb565b60405180910390fd5b8263ffffffff168263ffffffff1611610d24576040517f08c379a0000000000000000000000000000000000000000000000000000000008152600401610d1b90612257565b60405180910390fd5b60985442610d3291906122a6565b8263ffffffff161115610d7a576040517f08c379a0000000000000000000000000000000000000000000000000000000008152600401610d719061236e565b60405180910390fd5b600160976000828254610d8d91906122a6565b925050819055506040518060e001604052803373ffffffffffffffffffffffffffffffffffffffff1681526020018273ffffffffffffffffffffffffffffffffffffffff168152602001858152602001600081526020018463ffffffff1681526020018363ffffffff1681526020016000151581525060996000609754815260200190815260200160002060008201518160000160006101000a81548173ffffffffffffffffffffffffffffffffffffffff021916908373ffffffffffffffffffffffffffffffffffffffff16021790555060208201518160010160006101000a81548173ffffffffffffffffffffffffffffffffffffffff021916908373ffffffffffffffffffffffffffffffffffffffff16021790555060408201518160020155606082015181600301556080820151816004015560a0820151816005015560c08201518160060160006101000a81548160ff0219169083151502179055509050503373ffffffffffffffffffffffffffffffffffffffff167faa51acda46d8d12782997c35b901bbdcaeccc85324ae92fde08e32717408cbe260975483878787604051610f4195949392919061239d565b60405180910390a250505050565b60006099600084815260200190815260200160002090508060040154421015610fad576040517f08c379a0000000000000000000000000000000000000000000000000000000008152600401610fa49061243c565b60405180910390fd5b8060050154421115610ff4576040517f08c379a0000000000000000000000000000000000000000000000000000000008152600401610feb906124a8565b60405180910390fd5b81609a600085815260200190815260200160002060003373ffffffffffffffffffffffffffffffffffffffff1673ffffffffffffffffffffffffffffffffffffffff168152602001908152602001600020541015611087576040517f08c379a000000000000000000000000000000000000000000000000000000000815260040161107e9061253a565b60405180910390fd5b8181600301600082825461109b919061255a565b9250508190555081609a600085815260200190815260200160002060003373ffffffffffffffffffffffffffffffffffffffff1673ffffffffffffffffffffffffffffffffffffffff1681526020019081526020016000206000828254611102919061255a565b925050819055508060010160009054906101000a900473ffffffffffffffffffffffffffffffffffffffff1673ffffffffffffffffffffffffffffffffffffffff1663a9059cbb33846040518363ffffffff1660e01b8152600401611168929190611eb2565b602060405180830381600087803b15801561118257600080fd5b505af1158015611196573d6000803e3d6000fd5b505050506040513d601f19601f820116820180604052508101906111ba9190611f07565b503373ffffffffffffffffffffffffffffffffffffffff16837f2eeeab891b26a214d1b25749f88a406bdea852bd8c9bfda977e0ef8114c180ba846040516112029190611a4e565b60405180910390a3505050565b609a602052816000526040600020602052806000526040600020600091509150505481565b61123c6115ee565b600073ffffffffffffffffffffffffffffffffffffffff168173ffffffffffffffffffffffffffffffffffffffff1614156112ac576040517f08c379a00000000000000000000000000000000000000000000000000000000081526004016112a390612600565b60405180910390fd5b6112b5816116cf565b50565b60006099600084815260200190815260200160002090508060040154421015611316576040517f08c379a000000000000000000000000000000000000000000000000000000000815260040161130d9061243c565b60405180910390fd5b8181600301600082825461132a91906122a6565b9250508190555081609a600085815260200190815260200160002060003373ffffffffffffffffffffffffffffffffffffffff1673ffffffffffffffffffffffffffffffffffffffff168152602001908152602001600020600082825461139191906122a6565b925050819055508060010160009054906101000a900473ffffffffffffffffffffffffffffffffffffffff1673ffffffffffffffffffffffffffffffffffffffff166323b872dd3330856040518463ffffffff1660e01b81526004016113f993929190612620565b602060405180830381600087803b15801561141357600080fd5b505af1158015611427573d6000803e3d6000fd5b505050506040513d601f19601f8201168201806040525081019061144b9190611f07565b503373ffffffffffffffffffffffffffffffffffffffff16837f06bdb975df800a73232998e71ed585d536222f1dfeaa622d7f62a23ada686c82846040516114939190611a4e565b60405180910390a3505050565b60008060019054906101000a900460ff161590508080156114d15750600160008054906101000a900460ff1660ff16105b806114fe57506114e0306117f8565b1580156114fd5750600160008054906101000a900460ff1660ff16145b5b61153d576040517f08c379a0000000000000000000000000000000000000000000000000000000008152600401611534906126c9565b60405180910390fd5b60016000806101000a81548160ff021916908360ff160217905550801561157a576001600060016101000a81548160ff0219169083151502179055505b8160988190555061158961181b565b611591611874565b80156115ea5760008060016101000a81548160ff0219169083151502179055507f7f26b83ff96e1f2b6a682f133852f6798a09c465da95921460cefb384740249860016040516115e19190612731565b60405180910390a15b5050565b6115f66118cd565b73ffffffffffffffffffffffffffffffffffffffff16611614610c63565b73ffffffffffffffffffffffffffffffffffffffff161461166a576040517f08c379a000000000000000000000000000000000000000000000000000000000815260040161166190612798565b60405180910390fd5b565b6116746118d5565b6000603360006101000a81548160ff0219169083151502179055507f5db9ee0a495bf2e6ff9c91a7834c1ba4fdd244a5e8aa4e537bd38aeae4b073aa6116b86118cd565b6040516116c59190611c0c565b60405180910390a1565b6000606560009054906101000a900473ffffffffffffffffffffffffffffffffffffffff16905081606560006101000a81548173ffffffffffffffffffffffffffffffffffffffff021916908373ffffffffffffffffffffffffffffffffffffffff1602179055508173ffffffffffffffffffffffffffffffffffffffff168173ffffffffffffffffffffffffffffffffffffffff167f8be0079c531659141344cd1fd0a4f28419497f9722a3daafe3b4186f6b6457e060405160405180910390a35050565b61179d61191e565b6001603360006101000a81548160ff0219169083151502179055507f62e78cea01bee320cd4e420270b5ea74000d11b0c9f74754ebdbfc544b05a2586117e16118cd565b6040516117ee9190611c0c565b60405180910390a1565b6000808273ffffffffffffffffffffffffffffffffffffffff163b119050919050565b600060019054906101000a900460ff1661186a576040517f08c379a00000000000000000000000000000000000000000000000000000000081526004016118619061282a565b60405180910390fd5b611872611968565b565b600060019054906101000a900460ff166118c3576040517f08c379a00000000000000000000000000000000000000000000000000000000081526004016118ba9061282a565b60405180910390fd5b6118cb6119d4565b565b600033905090565b6118dd610c20565b61191c576040517f08c379a000000000000000000000000000000000000000000000000000000000815260040161191390612896565b60405180910390fd5b565b611926610c20565b15611966576040517f08c379a000000000000000000000000000000000000000000000000000000000815260040161195d90612902565b60405180910390fd5b565b600060019054906101000a900460ff166119b7576040517f08c379a00000000000000000000000000000000000000000000000000000000081526004016119ae9061282a565b60405180910390fd5b6000603360006101000a81548160ff021916908315150217905550565b600060019054906101000a900460ff16611a23576040517f08c379a0000000000000000000000000000000000000000000000000000000008152600401611a1a9061282a565b60405180910390fd5b611a33611a2e6118cd565b6116cf565b565b6000819050919050565b611a4881611a35565b82525050565b6000602082019050611a636000830184611a3f565b92915050565b600080fd5b611a7781611a35565b8114611a8257600080fd5b50565b600081359050611a9481611a6e565b92915050565b600060208284031215611ab057611aaf611a69565b5b6000611abe84828501611a85565b91505092915050565b600073ffffffffffffffffffffffffffffffffffffffff82169050919050565b6000611af282611ac7565b9050919050565b611b0281611ae7565b82525050565b6000819050919050565b6000611b2d611b28611b2384611ac7565b611b08565b611ac7565b9050919050565b6000611b3f82611b12565b9050919050565b6000611b5182611b34565b9050919050565b611b6181611b46565b82525050565b60008115159050919050565b611b7c81611b67565b82525050565b600060e082019050611b97600083018a611af9565b611ba46020830189611b58565b611bb16040830188611a3f565b611bbe6060830187611a3f565b611bcb6080830186611a3f565b611bd860a0830185611a3f565b611be560c0830184611b73565b98975050505050505050565b6000602082019050611c066000830184611b73565b92915050565b6000602082019050611c216000830184611af9565b92915050565b600063ffffffff82169050919050565b611c4081611c27565b8114611c4b57600080fd5b50565b600081359050611c5d81611c37565b92915050565b611c6c81611ae7565b8114611c7757600080fd5b50565b600081359050611c8981611c63565b92915050565b60008060008060808587031215611ca957611ca8611a69565b5b6000611cb787828801611a85565b9450506020611cc887828801611c4e565b9350506040611cd987828801611c4e565b9250506060611cea87828801611c7a565b91505092959194509250565b60008060408385031215611d0d57611d0c611a69565b5b6000611d1b85828601611a85565b9250506020611d2c85828601611a85565b9150509250929050565b60008060408385031215611d4d57611d4c611a69565b5b6000611d5b85828601611a85565b9250506020611d6c85828601611c7a565b9150509250929050565b600060208284031215611d8c57611d8b611a69565b5b6000611d9a84828501611c7a565b91505092915050565b600082825260208201905092915050565b7f6e6f7420656e6465640000000000000000000000000000000000000000000000600082015250565b6000611dea600983611da3565b9150611df582611db4565b602082019050919050565b60006020820190508181036000830152611e1981611ddd565b9050919050565b7f596f752063616e6e6f742057697468647261772c2043616d706169676e20686160008201527f7320737563636565646564000000000000000000000000000000000000000000602082015250565b6000611e7c602b83611da3565b9150611e8782611e20565b604082019050919050565b60006020820190508181036000830152611eab81611e6f565b9050919050565b6000604082019050611ec76000830185611af9565b611ed46020830184611a3f565b9392505050565b611ee481611b67565b8114611eef57600080fd5b50565b600081519050611f0181611edb565b92915050565b600060208284031215611f1d57611f1c611a69565b5b6000611f2b84828501611ef2565b91505092915050565b6000604082019050611f496000830185611a3f565b611f566020830184611a3f565b9392505050565b7f596f7520646964206e6f742063726561746520746869732043616d706169676e600082015250565b6000611f93602083611da3565b9150611f9e82611f5d565b602082019050919050565b60006020820190508181036000830152611fc281611f86565b9050919050565b7f43616d706169676e20686173206e6f7420656e64656400000000000000000000600082015250565b6000611fff601683611da3565b915061200a82611fc9565b602082019050919050565b6000602082019050818103600083015261202e81611ff2565b9050919050565b7f43616d706169676e20646964206e6f7420737563636564000000000000000000600082015250565b600061206b601783611da3565b915061207682612035565b602082019050919050565b6000602082019050818103600083015261209a8161205e565b9050919050565b7f636c61696d656400000000000000000000000000000000000000000000000000600082015250565b60006120d7600783611da3565b91506120e2826120a1565b602082019050919050565b60006020820190508181036000830152612106816120ca565b9050919050565b7f43616d706169676e2068617320616c7265616479207374617274656400000000600082015250565b6000612143601c83611da3565b915061214e8261210d565b602082019050919050565b6000602082019050818103600083015261217281612136565b9050919050565b7f53746172742074696d65206973206c657373207468616e2063757272656e742060008201527f426c6f636b2054696d657374616d700000000000000000000000000000000000602082015250565b60006121d5602f83611da3565b91506121e082612179565b604082019050919050565b60006020820190508181036000830152612204816121c8565b9050919050565b7f456e642074696d65206973206c657373207468616e2053746172742074696d65600082015250565b6000612241602083611da3565b915061224c8261220b565b602082019050919050565b6000602082019050818103600083015261227081612234565b9050919050565b7f4e487b7100000000000000000000000000000000000000000000000000000000600052601160045260246000fd5b60006122b182611a35565b91506122bc83611a35565b9250827fffffffffffffffffffffffffffffffffffffffffffffffffffffffffffffffff038211156122f1576122f0612277565b5b828201905092915050565b7f456e642074696d65206578636565647320746865206d6178696d756d2044757260008201527f6174696f6e000000000000000000000000000000000000000000000000000000602082015250565b6000612358602583611da3565b9150612363826122fc565b604082019050919050565b600060208201905081810360008301526123878161234b565b9050919050565b61239781611c27565b82525050565b600060a0820190506123b26000830188611a3f565b6123bf6020830187611af9565b6123cc6040830186611a3f565b6123d9606083018561238e565b6123e6608083018461238e565b9695505050505050565b7f43616d706169676e20686173206e6f7420537461727465642079657400000000600082015250565b6000612426601c83611da3565b9150612431826123f0565b602082019050919050565b6000602082019050818103600083015261245581612419565b9050919050565b7f43616d706169676e2068617320616c726561647920656e646564000000000000600082015250565b6000612492601a83611da3565b915061249d8261245c565b602082019050919050565b600060208201905081810360008301526124c181612485565b9050919050565b7f596f7520646f206e6f74206861766520656e6f75676820746f6b656e7320506c60008201527f656467656420746f207769746872617700000000000000000000000000000000602082015250565b6000612524603083611da3565b915061252f826124c8565b604082019050919050565b6000602082019050818103600083015261255381612517565b9050919050565b600061256582611a35565b915061257083611a35565b92508282101561258357612582612277565b5b828203905092915050565b7f4f776e61626c653a206e6577206f776e657220697320746865207a65726f206160008201527f6464726573730000000000000000000000000000000000000000000000000000602082015250565b60006125ea602683611da3565b91506125f58261258e565b604082019050919050565b60006020820190508181036000830152612619816125dd565b9050919050565b60006060820190506126356000830186611af9565b6126426020830185611af9565b61264f6040830184611a3f565b949350505050565b7f496e697469616c697a61626c653a20636f6e747261637420697320616c72656160008201527f647920696e697469616c697a6564000000000000000000000000000000000000602082015250565b60006126b3602e83611da3565b91506126be82612657565b604082019050919050565b600060208201905081810360008301526126e2816126a6565b9050919050565b6000819050919050565b600060ff82169050919050565b600061271b612716612711846126e9565b611b08565b6126f3565b9050919050565b61272b81612700565b82525050565b60006020820190506127466000830184612722565b92915050565b7f4f776e61626c653a2063616c6c6572206973206e6f7420746865206f776e6572600082015250565b6000612782602083611da3565b915061278d8261274c565b602082019050919050565b600060208201905081810360008301526127b181612775565b9050919050565b7f496e697469616c697a61626c653a20636f6e7472616374206973206e6f74206960008201527f6e697469616c697a696e67000000000000000000000000000000000000000000602082015250565b6000612814602b83611da3565b915061281f826127b8565b604082019050919050565b6000602082019050818103600083015261284381612807565b9050919050565b7f5061757361626c653a206e6f7420706175736564000000000000000000000000600082015250565b6000612880601483611da3565b915061288b8261284a565b602082019050919050565b600060208201905081810360008301526128af81612873565b9050919050565b7f5061757361626c653a2070617573656400000000000000000000000000000000600082015250565b60006128ec601083611da3565b91506128f7826128b6565b602082019050919050565b6000602082019050818103600083015261291b816128df565b905091905056fea264697066735822122058b14eaf59db810875477db197560cc5e7f141fc8d5a0b026911fe88e73650f364736f6c63430008090033",
  "linkReferences": {},
  "deployedLinkReferences": {}
}